{
  "address": "0x60F65f348506B634139Af2753843d32aBf51ef17",
  "abi": [
    {
      "inputs": [
        {
          "internalType": "string",
          "name": "uri",
          "type": "string"
        }
      ],
      "stateMutability": "nonpayable",
      "type": "constructor"
    },
    {
      "anonymous": false,
      "inputs": [
        {
          "indexed": true,
          "internalType": "address",
          "name": "account",
          "type": "address"
        },
        {
          "indexed": true,
          "internalType": "address",
          "name": "operator",
          "type": "address"
        },
        {
          "indexed": false,
          "internalType": "bool",
          "name": "approved",
          "type": "bool"
        }
      ],
      "name": "ApprovalForAll",
      "type": "event"
    },
    {
      "anonymous": false,
      "inputs": [
        {
          "indexed": false,
          "internalType": "address",
          "name": "claimer",
          "type": "address"
        },
        {
          "indexed": false,
          "internalType": "uint256",
          "name": "rewardType",
          "type": "uint256"
        },
        {
          "indexed": false,
          "internalType": "uint256",
          "name": "rewardRarity",
          "type": "uint256"
        },
        {
          "indexed": false,
          "internalType": "bytes",
          "name": "rewardData",
          "type": "bytes"
        }
      ],
      "name": "LogDailyClaim",
      "type": "event"
    },
    {
      "anonymous": false,
      "inputs": [
        {
          "indexed": true,
          "internalType": "bytes32",
          "name": "role",
          "type": "bytes32"
        },
        {
          "indexed": true,
          "internalType": "bytes32",
          "name": "previousAdminRole",
          "type": "bytes32"
        },
        {
          "indexed": true,
          "internalType": "bytes32",
          "name": "newAdminRole",
          "type": "bytes32"
        }
      ],
      "name": "RoleAdminChanged",
      "type": "event"
    },
    {
      "anonymous": false,
      "inputs": [
        {
          "indexed": true,
          "internalType": "bytes32",
          "name": "role",
          "type": "bytes32"
        },
        {
          "indexed": true,
          "internalType": "address",
          "name": "account",
          "type": "address"
        },
        {
          "indexed": true,
          "internalType": "address",
          "name": "sender",
          "type": "address"
        }
      ],
      "name": "RoleGranted",
      "type": "event"
    },
    {
      "anonymous": false,
      "inputs": [
        {
          "indexed": true,
          "internalType": "bytes32",
          "name": "role",
          "type": "bytes32"
        },
        {
          "indexed": true,
          "internalType": "address",
          "name": "account",
          "type": "address"
        },
        {
          "indexed": true,
          "internalType": "address",
          "name": "sender",
          "type": "address"
        }
      ],
      "name": "RoleRevoked",
      "type": "event"
    },
    {
      "anonymous": false,
      "inputs": [
        {
          "indexed": true,
          "internalType": "address",
          "name": "operator",
          "type": "address"
        },
        {
          "indexed": true,
          "internalType": "address",
          "name": "from",
          "type": "address"
        },
        {
          "indexed": true,
          "internalType": "address",
          "name": "to",
          "type": "address"
        },
        {
          "indexed": false,
          "internalType": "uint256[]",
          "name": "ids",
          "type": "uint256[]"
        },
        {
          "indexed": false,
          "internalType": "uint256[]",
          "name": "values",
          "type": "uint256[]"
        }
      ],
      "name": "TransferBatch",
      "type": "event"
    },
    {
      "anonymous": false,
      "inputs": [
        {
          "indexed": true,
          "internalType": "address",
          "name": "operator",
          "type": "address"
        },
        {
          "indexed": true,
          "internalType": "address",
          "name": "from",
          "type": "address"
        },
        {
          "indexed": true,
          "internalType": "address",
          "name": "to",
          "type": "address"
        },
        {
          "indexed": false,
          "internalType": "uint256",
          "name": "id",
          "type": "uint256"
        },
        {
          "indexed": false,
          "internalType": "uint256",
          "name": "value",
          "type": "uint256"
        }
      ],
      "name": "TransferSingle",
      "type": "event"
    },
    {
      "anonymous": false,
      "inputs": [
        {
          "indexed": false,
          "internalType": "string",
          "name": "value",
          "type": "string"
        },
        {
          "indexed": true,
          "internalType": "uint256",
          "name": "id",
          "type": "uint256"
        }
      ],
      "name": "URI",
      "type": "event"
    },
    {
      "inputs": [],
      "name": "DEFAULT_ADMIN_ROLE",
      "outputs": [
        {
          "internalType": "bytes32",
          "name": "",
          "type": "bytes32"
        }
      ],
      "stateMutability": "view",
      "type": "function"
    },
    {
      "inputs": [],
      "name": "_commonRoll",
      "outputs": [
        {
          "internalType": "uint16",
          "name": "",
          "type": "uint16"
        }
      ],
      "stateMutability": "view",
      "type": "function"
    },
    {
      "inputs": [],
      "name": "_epicRoll",
      "outputs": [
        {
          "internalType": "uint16",
          "name": "",
          "type": "uint16"
        }
      ],
      "stateMutability": "view",
      "type": "function"
    },
    {
      "inputs": [
        {
          "internalType": "address",
          "name": "",
          "type": "address"
        }
      ],
      "name": "_lastUpdate",
      "outputs": [
        {
          "internalType": "uint256",
          "name": "",
          "type": "uint256"
        }
      ],
      "stateMutability": "view",
      "type": "function"
    },
    {
      "inputs": [],
      "name": "_legendaryRoll",
      "outputs": [
        {
          "internalType": "uint16",
          "name": "",
          "type": "uint16"
        }
      ],
      "stateMutability": "view",
      "type": "function"
    },
    {
      "inputs": [],
      "name": "_maxRarityRoll",
      "outputs": [
        {
          "internalType": "uint16",
          "name": "",
          "type": "uint16"
        }
      ],
      "stateMutability": "view",
      "type": "function"
    },
    {
      "inputs": [],
      "name": "_milkContractAddress",
      "outputs": [
        {
          "internalType": "address",
          "name": "",
          "type": "address"
        }
      ],
      "stateMutability": "view",
      "type": "function"
    },
    {
      "inputs": [],
      "name": "_rareRoll",
      "outputs": [
        {
          "internalType": "uint16",
          "name": "",
          "type": "uint16"
        }
      ],
      "stateMutability": "view",
      "type": "function"
    },
    {
      "inputs": [
        {
          "internalType": "uint256",
          "name": "",
          "type": "uint256"
        },
        {
          "internalType": "uint256",
          "name": "",
          "type": "uint256"
        }
      ],
      "name": "_rewardMapping",
      "outputs": [
        {
          "internalType": "bytes",
          "name": "",
          "type": "bytes"
        }
      ],
      "stateMutability": "view",
      "type": "function"
    },
    {
      "inputs": [],
      "name": "_uncommonRoll",
      "outputs": [
        {
          "internalType": "uint16",
          "name": "",
          "type": "uint16"
        }
      ],
      "stateMutability": "view",
      "type": "function"
    },
    {
      "inputs": [
        {
          "internalType": "address",
          "name": "account",
          "type": "address"
        },
        {
          "internalType": "uint256",
          "name": "id",
          "type": "uint256"
        }
      ],
      "name": "balanceOf",
      "outputs": [
        {
          "internalType": "uint256",
          "name": "",
          "type": "uint256"
        }
      ],
      "stateMutability": "view",
      "type": "function"
    },
    {
      "inputs": [
        {
          "internalType": "address[]",
          "name": "accounts",
          "type": "address[]"
        },
        {
          "internalType": "uint256[]",
          "name": "ids",
          "type": "uint256[]"
        }
      ],
      "name": "balanceOfBatch",
      "outputs": [
        {
          "internalType": "uint256[]",
          "name": "",
          "type": "uint256[]"
        }
      ],
      "stateMutability": "view",
      "type": "function"
    },
    {
      "inputs": [
        {
          "internalType": "address",
          "name": "claimer",
          "type": "address"
        },
        {
          "internalType": "uint256",
          "name": "entropy",
          "type": "uint256"
        }
      ],
      "name": "claim",
      "outputs": [],
      "stateMutability": "nonpayable",
      "type": "function"
    },
    {
      "inputs": [
        {
          "internalType": "uint256",
          "name": "id",
          "type": "uint256"
        }
      ],
      "name": "exists",
      "outputs": [
        {
          "internalType": "bool",
          "name": "",
          "type": "bool"
        }
      ],
      "stateMutability": "view",
      "type": "function"
    },
    {
      "inputs": [
        {
          "internalType": "bytes32",
          "name": "role",
          "type": "bytes32"
        }
      ],
      "name": "getRoleAdmin",
      "outputs": [
        {
          "internalType": "bytes32",
          "name": "",
          "type": "bytes32"
        }
      ],
      "stateMutability": "view",
      "type": "function"
    },
    {
      "inputs": [
        {
          "internalType": "bytes32",
          "name": "role",
          "type": "bytes32"
        },
        {
          "internalType": "address",
          "name": "account",
          "type": "address"
        }
      ],
      "name": "grantRole",
      "outputs": [],
      "stateMutability": "nonpayable",
      "type": "function"
    },
    {
      "inputs": [
        {
          "internalType": "bytes32",
          "name": "role",
          "type": "bytes32"
        },
        {
          "internalType": "address",
          "name": "account",
          "type": "address"
        }
      ],
      "name": "hasRole",
      "outputs": [
        {
          "internalType": "bool",
          "name": "",
          "type": "bool"
        }
      ],
      "stateMutability": "view",
      "type": "function"
    },
    {
      "inputs": [
        {
          "internalType": "address",
          "name": "account",
          "type": "address"
        },
        {
          "internalType": "address",
          "name": "operator",
          "type": "address"
        }
      ],
      "name": "isApprovedForAll",
      "outputs": [
        {
          "internalType": "bool",
          "name": "",
          "type": "bool"
        }
      ],
      "stateMutability": "view",
      "type": "function"
    },
    {
      "inputs": [
        {
          "internalType": "bytes32",
          "name": "role",
          "type": "bytes32"
        },
        {
          "internalType": "address",
          "name": "account",
          "type": "address"
        }
      ],
      "name": "renounceRole",
      "outputs": [],
      "stateMutability": "nonpayable",
      "type": "function"
    },
    {
      "inputs": [
        {
          "internalType": "bytes32",
          "name": "role",
          "type": "bytes32"
        },
        {
          "internalType": "address",
          "name": "account",
          "type": "address"
        }
      ],
      "name": "revokeRole",
      "outputs": [],
      "stateMutability": "nonpayable",
      "type": "function"
    },
    {
      "inputs": [
        {
          "internalType": "address",
          "name": "from",
          "type": "address"
        },
        {
          "internalType": "address",
          "name": "to",
          "type": "address"
        },
        {
          "internalType": "uint256[]",
          "name": "ids",
          "type": "uint256[]"
        },
        {
          "internalType": "uint256[]",
          "name": "amounts",
          "type": "uint256[]"
        },
        {
          "internalType": "bytes",
          "name": "data",
          "type": "bytes"
        }
      ],
      "name": "safeBatchTransferFrom",
      "outputs": [],
      "stateMutability": "nonpayable",
      "type": "function"
    },
    {
      "inputs": [
        {
          "internalType": "address",
          "name": "from",
          "type": "address"
        },
        {
          "internalType": "address",
          "name": "to",
          "type": "address"
        },
        {
          "internalType": "uint256",
          "name": "id",
          "type": "uint256"
        },
        {
          "internalType": "uint256",
          "name": "amount",
          "type": "uint256"
        },
        {
          "internalType": "bytes",
          "name": "data",
          "type": "bytes"
        }
      ],
      "name": "safeTransferFrom",
      "outputs": [],
      "stateMutability": "nonpayable",
      "type": "function"
    },
    {
      "inputs": [
        {
          "internalType": "address",
          "name": "operator",
          "type": "address"
        },
        {
          "internalType": "bool",
          "name": "approved",
          "type": "bool"
        }
      ],
      "name": "setApprovalForAll",
      "outputs": [],
      "stateMutability": "nonpayable",
      "type": "function"
    },
    {
      "inputs": [
        {
          "internalType": "address",
          "name": "milkContractAddress",
          "type": "address"
        }
      ],
      "name": "setMilkContractAddress",
      "outputs": [],
      "stateMutability": "nonpayable",
      "type": "function"
    },
    {
      "inputs": [
        {
          "internalType": "uint16",
          "name": "common",
          "type": "uint16"
        },
        {
          "internalType": "uint16",
          "name": "uncommon",
          "type": "uint16"
        },
        {
          "internalType": "uint16",
          "name": "rare",
          "type": "uint16"
        },
        {
          "internalType": "uint16",
          "name": "epic",
          "type": "uint16"
        },
        {
          "internalType": "uint16",
          "name": "legendary",
          "type": "uint16"
        },
        {
          "internalType": "uint16",
          "name": "maxRoll",
          "type": "uint16"
        }
      ],
      "name": "setRarityRolls",
      "outputs": [],
      "stateMutability": "nonpayable",
      "type": "function"
    },
    {
      "inputs": [
        {
          "internalType": "uint256",
          "name": "rewardType",
          "type": "uint256"
        },
        {
          "internalType": "uint256",
          "name": "rewardRarity",
          "type": "uint256"
        },
        {
          "internalType": "bytes",
          "name": "rewardData",
          "type": "bytes"
        }
      ],
      "name": "setReward",
      "outputs": [],
      "stateMutability": "nonpayable",
      "type": "function"
    },
    {
      "inputs": [
        {
          "internalType": "bytes4",
          "name": "interfaceId",
          "type": "bytes4"
        }
      ],
      "name": "supportsInterface",
      "outputs": [
        {
          "internalType": "bool",
          "name": "",
          "type": "bool"
        }
      ],
      "stateMutability": "view",
      "type": "function"
    },
    {
      "inputs": [
        {
          "internalType": "uint256",
          "name": "id",
          "type": "uint256"
        }
      ],
      "name": "totalSupply",
      "outputs": [
        {
          "internalType": "uint256",
          "name": "",
          "type": "uint256"
        }
      ],
      "stateMutability": "view",
      "type": "function"
    },
    {
      "inputs": [
        {
          "internalType": "uint256",
          "name": "",
          "type": "uint256"
        }
      ],
      "name": "uri",
      "outputs": [
        {
          "internalType": "string",
          "name": "",
          "type": "string"
        }
      ],
      "stateMutability": "view",
      "type": "function"
    }
  ],
  "transactionHash": "0xe9bd8fd94a0419eceb0a78f3fbafad274a0bb240fef3a46131e24fbf411913bf",
  "args": [
    "https://ipfs.io/ipfs/QmQtN81i9eNrD3wxcr67scDpLvZDDXxbmAvNXMaZh3D6tB/"
  ],
  "numDeployments": 5,
  "solcInputHash": "5e0d451c81284c1158fb23e4c15f3fee",
  "bytecode": "0x6080604052603c600660146101000a81548161ffff021916908361ffff1602179055506050600660166101000a81548161ffff021916908361ffff160217905550605a600660186101000a81548161ffff021916908361ffff16021790555060626006601a6101000a81548161ffff021916908361ffff16021790555060646006601c6101000a81548161ffff021916908361ffff160217905550348015620000a757600080fd5b5060405162005438380380620054388339818101604052810190620000cd9190620003c4565b80620000df816200010b60201b60201c565b50620001046000801b620000f86200012760201b60201c565b6200012f60201b60201c565b5062000579565b806002908051906020019062000123929190620002a2565b5050565b600033905090565b6200014182826200014560201b60201c565b5050565b6200015782826200023760201b60201c565b620002335760016004600084815260200190815260200160002060000160008373ffffffffffffffffffffffffffffffffffffffff1673ffffffffffffffffffffffffffffffffffffffff16815260200190815260200160002060006101000a81548160ff021916908315150217905550620001d86200012760201b60201c565b73ffffffffffffffffffffffffffffffffffffffff168173ffffffffffffffffffffffffffffffffffffffff16837f2f8788117e7eff1d82e926ec794901d17c78024a50270940304540a733656f0d60405160405180910390a45b5050565b60006004600084815260200190815260200160002060000160008373ffffffffffffffffffffffffffffffffffffffff1673ffffffffffffffffffffffffffffffffffffffff16815260200190815260200160002060009054906101000a900460ff16905092915050565b828054620002b0906200049e565b90600052602060002090601f016020900481019282620002d4576000855562000320565b82601f10620002ef57805160ff191683800117855562000320565b8280016001018555821562000320579182015b828111156200031f57825182559160200191906001019062000302565b5b5090506200032f919062000333565b5090565b5b808211156200034e57600081600090555060010162000334565b5090565b600062000369620003638462000432565b62000409565b9050828152602081018484840111156200038257600080fd5b6200038f84828562000468565b509392505050565b600082601f830112620003a957600080fd5b8151620003bb84826020860162000352565b91505092915050565b600060208284031215620003d757600080fd5b600082015167ffffffffffffffff811115620003f257600080fd5b620004008482850162000397565b91505092915050565b60006200041562000428565b9050620004238282620004d4565b919050565b6000604051905090565b600067ffffffffffffffff82111562000450576200044f62000539565b5b6200045b8262000568565b9050602081019050919050565b60005b83811015620004885780820151818401526020810190506200046b565b8381111562000498576000848401525b50505050565b60006002820490506001821680620004b757607f821691505b60208210811415620004ce57620004cd6200050a565b5b50919050565b620004df8262000568565b810181811067ffffffffffffffff8211171562000501576200050062000539565b5b80604052505050565b7f4e487b7100000000000000000000000000000000000000000000000000000000600052602260045260246000fd5b7f4e487b7100000000000000000000000000000000000000000000000000000000600052604160045260246000fd5b6000601f19601f8301169050919050565b614eaf80620005896000396000f3fe608060405234801561001057600080fd5b50600436106101ce5760003560e01c80636a6b6ed811610104578063aad3ec96116100a2578063d547741f11610071578063d547741f14610565578063db43235b14610581578063e985e9c51461059f578063f242432a146105cf576101ce565b8063aad3ec96146104cb578063bd85b039146104e7578063c62e93b214610517578063d44c467014610547576101ce565b80639a6a8888116100de5780639a6a8888146104575780639beccd5f14610473578063a217fddf14610491578063a22cb465146104af576101ce565b80636a6b6ed8146103eb578063710d2b151461040957806391d1485414610427576101ce565b80632eb2c2d61161017157806340a32dc51161014b57806340a32dc5146103535780634e1273f41461036f5780634f558e791461039f5780635d5d588c146103cf576101ce565b80632eb2c2d6146102ff5780632f2ff15d1461031b57806336568abe14610337576101ce565b80630e89341c116101ad5780630e89341c1461025157806313ca915714610281578063248a9ca31461029f5780632d7e79e0146102cf576101ce565b8062fdd58e146101d357806301ffc9a71461020357806309c3bf7214610233575b600080fd5b6101ed60048036038101906101e891906134d7565b6105eb565b6040516101fa91906141cd565b60405180910390f35b61021d600480360381019061021891906135e4565b6106b4565b60405161022a9190613eb8565b60405180910390f35b61023b6106c6565b60405161024891906141b2565b60405180910390f35b61026b600480360381019061026691906136bf565b6106da565b6040516102789190613f10565b60405180910390f35b61028961076e565b6040516102969190613d0d565b60405180910390f35b6102b960048036038101906102b4919061357f565b610794565b6040516102c69190613ed3565b60405180910390f35b6102e960048036038101906102e491906132e8565b6107b4565b6040516102f691906141cd565b60405180910390f35b6103196004803603810190610314919061334d565b6107cc565b005b610335600480360381019061033091906135a8565b61086d565b005b610351600480360381019061034c91906135a8565b610896565b005b61036d60048036038101906103689190613636565b610919565b005b61038960048036038101906103849190613513565b610b58565b6040516103969190613e5f565b60405180910390f35b6103b960048036038101906103b491906136bf565b610d09565b6040516103c69190613eb8565b60405180910390f35b6103e960048036038101906103e491906137f2565b610d1d565b005b6103f3610d7f565b60405161040091906141b2565b60405180910390f35b610411610d93565b60405161041e91906141b2565b60405180910390f35b610441600480360381019061043c91906135a8565b610da7565b60405161044e9190613eb8565b60405180910390f35b610471600480360381019061046c91906132e8565b610e12565b005b61047b610e6c565b60405161048891906141b2565b60405180910390f35b610499610e80565b6040516104a69190613ed3565b60405180910390f35b6104c960048036038101906104c4919061349b565b610e87565b005b6104e560048036038101906104e091906134d7565b610e9d565b005b61050160048036038101906104fc91906136bf565b61156c565b60405161050e91906141cd565b60405180910390f35b610531600480360381019061052c91906136e8565b611589565b60405161053e9190613eee565b60405180910390f35b61054f611636565b60405161055c91906141b2565b60405180910390f35b61057f600480360381019061057a91906135a8565b61164a565b005b610589611673565b60405161059691906141b2565b60405180910390f35b6105b960048036038101906105b49190613311565b611687565b6040516105c69190613eb8565b60405180910390f35b6105e960048036038101906105e4919061340c565b61171b565b005b60008073ffffffffffffffffffffffffffffffffffffffff168373ffffffffffffffffffffffffffffffffffffffff16141561065c576040517f08c379a000000000000000000000000000000000000000000000000000000000815260040161065390613fd2565b60405180910390fd5b60008083815260200190815260200160002060008473ffffffffffffffffffffffffffffffffffffffff1673ffffffffffffffffffffffffffffffffffffffff16815260200190815260200160002054905092915050565b60006106bf826117bc565b9050919050565b6006601c9054906101000a900461ffff1681565b6060600280546106e99061454e565b80601f01602080910402602001604051908101604052809291908181526020018280546107159061454e565b80156107625780601f1061073757610100808354040283529160200191610762565b820191906000526020600020905b81548152906001019060200180831161074557829003601f168201915b50505050509050919050565b600660009054906101000a900473ffffffffffffffffffffffffffffffffffffffff1681565b600060046000838152602001908152602001600020600101549050919050565b60056020528060005260406000206000915090505481565b6107d4611836565b73ffffffffffffffffffffffffffffffffffffffff168573ffffffffffffffffffffffffffffffffffffffff16148061081a575061081985610814611836565b611687565b5b610859576040517f08c379a000000000000000000000000000000000000000000000000000000000815260040161085090614052565b60405180910390fd5b610866858585858561183e565b5050505050565b61087682610794565b61088781610882611836565b611b9e565b6108918383611c3b565b505050565b61089e611836565b73ffffffffffffffffffffffffffffffffffffffff168173ffffffffffffffffffffffffffffffffffffffff161461090b576040517f08c379a000000000000000000000000000000000000000000000000000000000815260040161090290614192565b60405180910390fd5b6109158282611d1c565b5050565b6000801b61092e81610929611836565b611b9e565b8561ffff168761ffff1610610978576040517f08c379a000000000000000000000000000000000000000000000000000000000815260040161096f90613fb2565b60405180910390fd5b8461ffff168661ffff16106109c2576040517f08c379a00000000000000000000000000000000000000000000000000000000081526004016109b9906140b2565b60405180910390fd5b8361ffff168561ffff1610610a0c576040517f08c379a0000000000000000000000000000000000000000000000000000000008152600401610a03906140d2565b60405180910390fd5b8261ffff168461ffff1610610a56576040517f08c379a0000000000000000000000000000000000000000000000000000000008152600401610a4d90613ff2565b60405180910390fd5b8161ffff168361ffff161115610aa1576040517f08c379a0000000000000000000000000000000000000000000000000000000008152600401610a9890613f52565b60405180910390fd5b86600660146101000a81548161ffff021916908361ffff16021790555085600660166101000a81548161ffff021916908361ffff16021790555084600660186101000a81548161ffff021916908361ffff160217905550836006601a6101000a81548161ffff021916908361ffff160217905550826006601c6101000a81548161ffff021916908361ffff160217905550816006601e6101000a81548161ffff021916908361ffff16021790555050505050505050565b60608151835114610b9e576040517f08c379a0000000000000000000000000000000000000000000000000000000008152600401610b9590614112565b60405180910390fd5b6000835167ffffffffffffffff811115610be1577f4e487b7100000000000000000000000000000000000000000000000000000000600052604160045260246000fd5b604051908082528060200260200182016040528015610c0f5781602001602082028036833780820191505090505b50905060005b8451811015610cfe57610ca8858281518110610c5a577f4e487b7100000000000000000000000000000000000000000000000000000000600052603260045260246000fd5b6020026020010151858381518110610c9b577f4e487b7100000000000000000000000000000000000000000000000000000000600052603260045260246000fd5b60200260200101516105eb565b828281518110610ce1577f4e487b7100000000000000000000000000000000000000000000000000000000600052603260045260246000fd5b60200260200101818152505080610cf7906145b1565b9050610c15565b508091505092915050565b600080610d158361156c565b119050919050565b6000801b610d3281610d2d611836565b611b9e565b8282810190610d419190613724565b50505082826007600088815260200190815260200160002060008781526020019081526020016000209190610d77929190612f29565b505050505050565b600660189054906101000a900461ffff1681565b600660169054906101000a900461ffff1681565b60006004600084815260200190815260200160002060000160008373ffffffffffffffffffffffffffffffffffffffff1673ffffffffffffffffffffffffffffffffffffffff16815260200190815260200160002060009054906101000a900460ff16905092915050565b6000801b610e2781610e22611836565b611b9e565b81600660006101000a81548173ffffffffffffffffffffffffffffffffffffffff021916908373ffffffffffffffffffffffffffffffffffffffff1602179055505050565b6006601a9054906101000a900461ffff1681565b6000801b81565b610e99610e92611836565b8383611dfe565b5050565b6201518042610eac9190614422565b600560008473ffffffffffffffffffffffffffffffffffffffff1673ffffffffffffffffffffffffffffffffffffffff168152602001908152602001600020541115610f2d576040517f08c379a0000000000000000000000000000000000000000000000000000000008152600401610f2490614132565b60405180910390fd5b42600560008473ffffffffffffffffffffffffffffffffffffffff1673ffffffffffffffffffffffffffffffffffffffff168152602001908152602001600020819055506000610f7c82611f6b565b905060006006601c9054906101000a900461ffff1661ffff1682610fa091906145fa565b9050600060606000600180811115610fe1577f4e487b7100000000000000000000000000000000000000000000000000000000600052602160045260246000fd5b9050600660149054906101000a900461ffff1661ffff168410156110405760006004811115611039577f4e487b7100000000000000000000000000000000000000000000000000000000600052602160045260246000fd5b9250611196565b600660169054906101000a900461ffff1661ffff1684101561109d5760016004811115611096577f4e487b7100000000000000000000000000000000000000000000000000000000600052602160045260246000fd5b9250611195565b600660189054906101000a900461ffff1661ffff168410156110fa57600260048111156110f3577f4e487b7100000000000000000000000000000000000000000000000000000000600052602160045260246000fd5b9250611194565b6006601a9054906101000a900461ffff1661ffff168410156111575760036004811115611150577f4e487b7100000000000000000000000000000000000000000000000000000000600052602160045260246000fd5b9250611193565b600480811115611190577f4e487b7100000000000000000000000000000000000000000000000000000000600052602160045260246000fd5b92505b5b5b5b6004808111156111cf577f4e487b7100000000000000000000000000000000000000000000000000000000600052602160045260246000fd5b8314156111f7576111f28760018060405180602001604052806000815250611fa2565b611526565b600180811115611230577f4e487b7100000000000000000000000000000000000000000000000000000000600052602160045260246000fd5b61123987611f6b565b61124391906145fa565b9050600080600060076000858152602001908152602001600020600087815260200190815260200160002080546112799061454e565b80601f01602080910402602001604051908101604052809291908181526020018280546112a59061454e565b80156112f25780601f106112c7576101008083540402835291602001916112f2565b820191906000526020600020905b8154815290600101906020018083116112d557829003601f168201915b505050505080602001905181019061130a919061378b565b9250925092506000600184846113209190614422565b61132a9190614372565b6113338b611f6b565b61133d91906145fa565b846113489190614372565b905060006001811115611384577f4e487b7100000000000000000000000000000000000000000000000000000000600052602160045260246000fd5b851415611447576000600660009054906101000a900473ffffffffffffffffffffffffffffffffffffffff1690508073ffffffffffffffffffffffffffffffffffffffff16634eb902998d846040518363ffffffff1660e01b81526004016113ed929190613dea565b600060405180830381600087803b15801561140757600080fd5b505af115801561141b573d6000803e3d6000fd5b505050508160405160200161143091906141cd565b604051602081830303815290604052965050611521565b600082516114548c611f6b565b61145e91906145fa565b90506114bb8c84838151811061149d577f4e487b7100000000000000000000000000000000000000000000000000000000600052603260045260246000fd5b60200260200101518460405180602001604052806000815250611fa2565b8281815181106114f4577f4e487b7100000000000000000000000000000000000000000000000000000000600052603260045260246000fd5b60200260200101518260405160200161150e9291906141e8565b6040516020818303038152906040529650505b505050505b7f0abddb16689c98df752491657c9e586eff3198ece0269bcb57d4f690528e71a48782858560405161155b9493929190613e13565b60405180910390a150505050505050565b600060036000838152602001908152602001600020549050919050565b60076020528160005260406000206020528060005260406000206000915091505080546115b59061454e565b80601f01602080910402602001604051908101604052809291908181526020018280546115e19061454e565b801561162e5780601f106116035761010080835404028352916020019161162e565b820191906000526020600020905b81548152906001019060200180831161161157829003601f168201915b505050505081565b6006601e9054906101000a900461ffff1681565b61165382610794565b6116648161165f611836565b611b9e565b61166e8383611d1c565b505050565b600660149054906101000a900461ffff1681565b6000600160008473ffffffffffffffffffffffffffffffffffffffff1673ffffffffffffffffffffffffffffffffffffffff16815260200190815260200160002060008373ffffffffffffffffffffffffffffffffffffffff1673ffffffffffffffffffffffffffffffffffffffff16815260200190815260200160002060009054906101000a900460ff16905092915050565b611723611836565b73ffffffffffffffffffffffffffffffffffffffff168573ffffffffffffffffffffffffffffffffffffffff161480611769575061176885611763611836565b611687565b5b6117a8576040517f08c379a000000000000000000000000000000000000000000000000000000000815260040161179f90614012565b60405180910390fd5b6117b58585858585612138565b5050505050565b60007f7965db0b000000000000000000000000000000000000000000000000000000007bffffffffffffffffffffffffffffffffffffffffffffffffffffffff1916827bffffffffffffffffffffffffffffffffffffffffffffffffffffffff1916148061182f575061182e826123ba565b5b9050919050565b600033905090565b8151835114611882576040517f08c379a000000000000000000000000000000000000000000000000000000000815260040161187990614152565b60405180910390fd5b600073ffffffffffffffffffffffffffffffffffffffff168473ffffffffffffffffffffffffffffffffffffffff1614156118f2576040517f08c379a00000000000000000000000000000000000000000000000000000000081526004016118e990614032565b60405180910390fd5b60006118fc611836565b905061190c81878787878761249c565b60005b8451811015611b09576000858281518110611953577f4e487b7100000000000000000000000000000000000000000000000000000000600052603260045260246000fd5b602002602001015190506000858381518110611998577f4e487b7100000000000000000000000000000000000000000000000000000000600052603260045260246000fd5b60200260200101519050600080600084815260200190815260200160002060008b73ffffffffffffffffffffffffffffffffffffffff1673ffffffffffffffffffffffffffffffffffffffff16815260200190815260200160002054905081811015611a39576040517f08c379a0000000000000000000000000000000000000000000000000000000008152600401611a3090614072565b60405180910390fd5b81810360008085815260200190815260200160002060008c73ffffffffffffffffffffffffffffffffffffffff1673ffffffffffffffffffffffffffffffffffffffff168152602001908152602001600020819055508160008085815260200190815260200160002060008b73ffffffffffffffffffffffffffffffffffffffff1673ffffffffffffffffffffffffffffffffffffffff1681526020019081526020016000206000828254611aee9190614372565b9250508190555050505080611b02906145b1565b905061190f565b508473ffffffffffffffffffffffffffffffffffffffff168673ffffffffffffffffffffffffffffffffffffffff168273ffffffffffffffffffffffffffffffffffffffff167f4a39dc06d4c0dbc64b70af90fd698a233a518aa5d07e595d983b8c0526c8f7fb8787604051611b80929190613e81565b60405180910390a4611b96818787878787612706565b505050505050565b611ba88282610da7565b611c3757611bcd8173ffffffffffffffffffffffffffffffffffffffff1660146128ed565b611bdb8360001c60206128ed565b604051602001611bec929190613cd3565b6040516020818303038152906040526040517f08c379a0000000000000000000000000000000000000000000000000000000008152600401611c2e9190613f10565b60405180910390fd5b5050565b611c458282610da7565b611d185760016004600084815260200190815260200160002060000160008373ffffffffffffffffffffffffffffffffffffffff1673ffffffffffffffffffffffffffffffffffffffff16815260200190815260200160002060006101000a81548160ff021916908315150217905550611cbd611836565b73ffffffffffffffffffffffffffffffffffffffff168173ffffffffffffffffffffffffffffffffffffffff16837f2f8788117e7eff1d82e926ec794901d17c78024a50270940304540a733656f0d60405160405180910390a45b5050565b611d268282610da7565b15611dfa5760006004600084815260200190815260200160002060000160008373ffffffffffffffffffffffffffffffffffffffff1673ffffffffffffffffffffffffffffffffffffffff16815260200190815260200160002060006101000a81548160ff021916908315150217905550611d9f611836565b73ffffffffffffffffffffffffffffffffffffffff168173ffffffffffffffffffffffffffffffffffffffff16837ff6391f5c32d9c69d2a47ea670b442974b53935d1edc7fd64eb21e047a839171b60405160405180910390a45b5050565b8173ffffffffffffffffffffffffffffffffffffffff168373ffffffffffffffffffffffffffffffffffffffff161415611e6d576040517f08c379a0000000000000000000000000000000000000000000000000000000008152600401611e64906140f2565b60405180910390fd5b80600160008573ffffffffffffffffffffffffffffffffffffffff1673ffffffffffffffffffffffffffffffffffffffff16815260200190815260200160002060008473ffffffffffffffffffffffffffffffffffffffff1673ffffffffffffffffffffffffffffffffffffffff16815260200190815260200160002060006101000a81548160ff0219169083151502179055508173ffffffffffffffffffffffffffffffffffffffff168373ffffffffffffffffffffffffffffffffffffffff167f17307eab39ab6107e8899845ad3d59bd9653f200f220920489ca2b5937696c3183604051611f5e9190613eb8565b60405180910390a3505050565b6000424483604051602001611f8293929190614211565b6040516020818303038152906040528051906020012060001c9050919050565b600073ffffffffffffffffffffffffffffffffffffffff168473ffffffffffffffffffffffffffffffffffffffff161415612012576040517f08c379a000000000000000000000000000000000000000000000000000000000815260040161200990614172565b60405180910390fd5b600061201c611836565b905061203d8160008761202e88612be7565b61203788612be7565b8761249c565b8260008086815260200190815260200160002060008773ffffffffffffffffffffffffffffffffffffffff1673ffffffffffffffffffffffffffffffffffffffff168152602001908152602001600020600082825461209c9190614372565b925050819055508473ffffffffffffffffffffffffffffffffffffffff16600073ffffffffffffffffffffffffffffffffffffffff168273ffffffffffffffffffffffffffffffffffffffff167fc3d58168c5ae7397731d063d5bbf3d657854427343f4c083240f7aacaa2d0f62878760405161211a9291906141e8565b60405180910390a461213181600087878787612cad565b5050505050565b600073ffffffffffffffffffffffffffffffffffffffff168473ffffffffffffffffffffffffffffffffffffffff1614156121a8576040517f08c379a000000000000000000000000000000000000000000000000000000000815260040161219f90614032565b60405180910390fd5b60006121b2611836565b90506121d28187876121c388612be7565b6121cc88612be7565b8761249c565b600080600086815260200190815260200160002060008873ffffffffffffffffffffffffffffffffffffffff1673ffffffffffffffffffffffffffffffffffffffff16815260200190815260200160002054905083811015612269576040517f08c379a000000000000000000000000000000000000000000000000000000000815260040161226090614072565b60405180910390fd5b83810360008087815260200190815260200160002060008973ffffffffffffffffffffffffffffffffffffffff1673ffffffffffffffffffffffffffffffffffffffff168152602001908152602001600020819055508360008087815260200190815260200160002060008873ffffffffffffffffffffffffffffffffffffffff1673ffffffffffffffffffffffffffffffffffffffff168152602001908152602001600020600082825461231e9190614372565b925050819055508573ffffffffffffffffffffffffffffffffffffffff168773ffffffffffffffffffffffffffffffffffffffff168373ffffffffffffffffffffffffffffffffffffffff167fc3d58168c5ae7397731d063d5bbf3d657854427343f4c083240f7aacaa2d0f62888860405161239b9291906141e8565b60405180910390a46123b1828888888888612cad565b50505050505050565b60007fd9b67a26000000000000000000000000000000000000000000000000000000007bffffffffffffffffffffffffffffffffffffffffffffffffffffffff1916827bffffffffffffffffffffffffffffffffffffffffffffffffffffffff1916148061248557507f0e89341c000000000000000000000000000000000000000000000000000000007bffffffffffffffffffffffffffffffffffffffffffffffffffffffff1916827bffffffffffffffffffffffffffffffffffffffffffffffffffffffff1916145b80612495575061249482612e94565b5b9050919050565b6124aa868686868686612efe565b600073ffffffffffffffffffffffffffffffffffffffff168573ffffffffffffffffffffffffffffffffffffffff1614156125a85760005b83518110156125a657828181518110612524577f4e487b7100000000000000000000000000000000000000000000000000000000600052603260045260246000fd5b602002602001015160036000868481518110612569577f4e487b7100000000000000000000000000000000000000000000000000000000600052603260045260246000fd5b60200260200101518152602001908152602001600020600082825461258e9190614372565b925050819055508061259f906145b1565b90506124e2565b505b600073ffffffffffffffffffffffffffffffffffffffff168473ffffffffffffffffffffffffffffffffffffffff1614156126fe5760005b83518110156126fc576000848281518110612624577f4e487b7100000000000000000000000000000000000000000000000000000000600052603260045260246000fd5b602002602001015190506000848381518110612669577f4e487b7100000000000000000000000000000000000000000000000000000000600052603260045260246000fd5b60200260200101519050600060036000848152602001908152602001600020549050818110156126ce576040517f08c379a00000000000000000000000000000000000000000000000000000000081526004016126c590614092565b60405180910390fd5b8181036003600085815260200190815260200160002081905550505050806126f5906145b1565b90506125e0565b505b505050505050565b6127258473ffffffffffffffffffffffffffffffffffffffff16612f06565b156128e5578373ffffffffffffffffffffffffffffffffffffffff1663bc197c8187878686866040518663ffffffff1660e01b815260040161276b959493929190613d28565b602060405180830381600087803b15801561278557600080fd5b505af19250505080156127b657506040513d601f19601f820116820180604052508101906127b3919061360d565b60015b61285c576127c26146e7565b806308c379a0141561281f57506127d7614d59565b806127e25750612821565b806040517f08c379a00000000000000000000000000000000000000000000000000000000081526004016128169190613f10565b60405180910390fd5b505b6040517f08c379a000000000000000000000000000000000000000000000000000000000815260040161285390613f32565b60405180910390fd5b63bc197c8160e01b7bffffffffffffffffffffffffffffffffffffffffffffffffffffffff1916817bffffffffffffffffffffffffffffffffffffffffffffffffffffffff1916146128e3576040517f08c379a00000000000000000000000000000000000000000000000000000000081526004016128da90613f92565b60405180910390fd5b505b505050505050565b60606000600283600261290091906143c8565b61290a9190614372565b67ffffffffffffffff811115612949577f4e487b7100000000000000000000000000000000000000000000000000000000600052604160045260246000fd5b6040519080825280601f01601f19166020018201604052801561297b5781602001600182028036833780820191505090505b5090507f3000000000000000000000000000000000000000000000000000000000000000816000815181106129d9577f4e487b7100000000000000000000000000000000000000000000000000000000600052603260045260246000fd5b60200101907effffffffffffffffffffffffffffffffffffffffffffffffffffffffffffff1916908160001a9053507f780000000000000000000000000000000000000000000000000000000000000081600181518110612a63577f4e487b7100000000000000000000000000000000000000000000000000000000600052603260045260246000fd5b60200101907effffffffffffffffffffffffffffffffffffffffffffffffffffffffffffff1916908160001a90535060006001846002612aa391906143c8565b612aad9190614372565b90505b6001811115612b99577f3031323334353637383961626364656600000000000000000000000000000000600f861660108110612b15577f4e487b7100000000000000000000000000000000000000000000000000000000600052603260045260246000fd5b1a60f81b828281518110612b52577f4e487b7100000000000000000000000000000000000000000000000000000000600052603260045260246000fd5b60200101907effffffffffffffffffffffffffffffffffffffffffffffffffffffffffffff1916908160001a905350600485901c945080612b9290614524565b9050612ab0565b5060008414612bdd576040517f08c379a0000000000000000000000000000000000000000000000000000000008152600401612bd490613f72565b60405180910390fd5b8091505092915050565b60606000600167ffffffffffffffff811115612c2c577f4e487b7100000000000000000000000000000000000000000000000000000000600052604160045260246000fd5b604051908082528060200260200182016040528015612c5a5781602001602082028036833780820191505090505b5090508281600081518110612c98577f4e487b7100000000000000000000000000000000000000000000000000000000600052603260045260246000fd5b60200260200101818152505080915050919050565b612ccc8473ffffffffffffffffffffffffffffffffffffffff16612f06565b15612e8c578373ffffffffffffffffffffffffffffffffffffffff1663f23a6e6187878686866040518663ffffffff1660e01b8152600401612d12959493929190613d90565b602060405180830381600087803b158015612d2c57600080fd5b505af1925050508015612d5d57506040513d601f19601f82011682018060405250810190612d5a919061360d565b60015b612e0357612d696146e7565b806308c379a01415612dc65750612d7e614d59565b80612d895750612dc8565b806040517f08c379a0000000000000000000000000000000000000000000000000000000008152600401612dbd9190613f10565b60405180910390fd5b505b6040517f08c379a0000000000000000000000000000000000000000000000000000000008152600401612dfa90613f32565b60405180910390fd5b63f23a6e6160e01b7bffffffffffffffffffffffffffffffffffffffffffffffffffffffff1916817bffffffffffffffffffffffffffffffffffffffffffffffffffffffff191614612e8a576040517f08c379a0000000000000000000000000000000000000000000000000000000008152600401612e8190613f92565b60405180910390fd5b505b505050505050565b60007f01ffc9a7000000000000000000000000000000000000000000000000000000007bffffffffffffffffffffffffffffffffffffffffffffffffffffffff1916827bffffffffffffffffffffffffffffffffffffffffffffffffffffffff1916149050919050565b505050505050565b6000808273ffffffffffffffffffffffffffffffffffffffff163b119050919050565b828054612f359061454e565b90600052602060002090601f016020900481019282612f575760008555612f9e565b82601f10612f7057803560ff1916838001178555612f9e565b82800160010185558215612f9e579182015b82811115612f9d578235825591602001919060010190612f82565b5b509050612fab9190612faf565b5090565b5b80821115612fc8576000816000905550600101612fb0565b5090565b6000612fdf612fda8461426d565b614248565b90508083825260208201905082856020860282011115612ffe57600080fd5b60005b8581101561302e5781613014888261314e565b845260208401935060208301925050600181019050613001565b5050509392505050565b600061304b61304684614299565b614248565b9050808382526020820190508285602086028201111561306a57600080fd5b60005b8581101561309a578161308088826132be565b84526020840193506020830192505060018101905061306d565b5050509392505050565b60006130b76130b284614299565b614248565b905080838252602082019050828560208602820111156130d657600080fd5b60005b8581101561310657816130ec88826132d3565b8452602084019350602083019250506001810190506130d9565b5050509392505050565b600061312361311e846142c5565b614248565b90508281526020810184848401111561313b57600080fd5b6131468482856144e2565b509392505050565b60008135905061315d81614def565b92915050565b600082601f83011261317457600080fd5b8135613184848260208601612fcc565b91505092915050565b600082601f83011261319e57600080fd5b81356131ae848260208601613038565b91505092915050565b600082601f8301126131c857600080fd5b81516131d88482602086016130a4565b91505092915050565b6000813590506131f081614e06565b92915050565b60008135905061320581614e1d565b92915050565b60008135905061321a81614e34565b92915050565b60008151905061322f81614e34565b92915050565b60008083601f84011261324757600080fd5b8235905067ffffffffffffffff81111561326057600080fd5b60208301915083600182028301111561327857600080fd5b9250929050565b600082601f83011261329057600080fd5b81356132a0848260208601613110565b91505092915050565b6000813590506132b881614e4b565b92915050565b6000813590506132cd81614e62565b92915050565b6000815190506132e281614e62565b92915050565b6000602082840312156132fa57600080fd5b60006133088482850161314e565b91505092915050565b6000806040838503121561332457600080fd5b60006133328582860161314e565b92505060206133438582860161314e565b9150509250929050565b600080600080600060a0868803121561336557600080fd5b60006133738882890161314e565b95505060206133848882890161314e565b945050604086013567ffffffffffffffff8111156133a157600080fd5b6133ad8882890161318d565b935050606086013567ffffffffffffffff8111156133ca57600080fd5b6133d68882890161318d565b925050608086013567ffffffffffffffff8111156133f357600080fd5b6133ff8882890161327f565b9150509295509295909350565b600080600080600060a0868803121561342457600080fd5b60006134328882890161314e565b95505060206134438882890161314e565b9450506040613454888289016132be565b9350506060613465888289016132be565b925050608086013567ffffffffffffffff81111561348257600080fd5b61348e8882890161327f565b9150509295509295909350565b600080604083850312156134ae57600080fd5b60006134bc8582860161314e565b92505060206134cd858286016131e1565b9150509250929050565b600080604083850312156134ea57600080fd5b60006134f88582860161314e565b9250506020613509858286016132be565b9150509250929050565b6000806040838503121561352657600080fd5b600083013567ffffffffffffffff81111561354057600080fd5b61354c85828601613163565b925050602083013567ffffffffffffffff81111561356957600080fd5b6135758582860161318d565b9150509250929050565b60006020828403121561359157600080fd5b600061359f848285016131f6565b91505092915050565b600080604083850312156135bb57600080fd5b60006135c9858286016131f6565b92505060206135da8582860161314e565b9150509250929050565b6000602082840312156135f657600080fd5b60006136048482850161320b565b91505092915050565b60006020828403121561361f57600080fd5b600061362d84828501613220565b91505092915050565b60008060008060008060c0878903121561364f57600080fd5b600061365d89828a016132a9565b965050602061366e89828a016132a9565b955050604061367f89828a016132a9565b945050606061369089828a016132a9565b93505060806136a189828a016132a9565b92505060a06136b289828a016132a9565b9150509295509295509295565b6000602082840312156136d157600080fd5b60006136df848285016132be565b91505092915050565b600080604083850312156136fb57600080fd5b6000613709858286016132be565b925050602061371a858286016132be565b9150509250929050565b60008060006060848603121561373957600080fd5b6000613747868287016132be565b9350506020613758868287016132be565b925050604084013567ffffffffffffffff81111561377557600080fd5b6137818682870161318d565b9150509250925092565b6000806000606084860312156137a057600080fd5b60006137ae868287016132d3565b93505060206137bf868287016132d3565b925050604084015167ffffffffffffffff8111156137dc57600080fd5b6137e8868287016131b7565b9150509250925092565b6000806000806060858703121561380857600080fd5b6000613816878288016132be565b9450506020613827878288016132be565b935050604085013567ffffffffffffffff81111561384457600080fd5b61385087828801613235565b925092505092959194509250565b600061386a8383613cb5565b60208301905092915050565b61387f81614456565b82525050565b600061389082614306565b61389a8185614334565b93506138a5836142f6565b8060005b838110156138d65781516138bd888261385e565b97506138c883614327565b9250506001810190506138a9565b5085935050505092915050565b6138ec81614468565b82525050565b6138fb81614474565b82525050565b600061390c82614311565b6139168185614345565b93506139268185602086016144f1565b61392f81614709565b840191505092915050565b60006139458261431c565b61394f8185614356565b935061395f8185602086016144f1565b61396881614709565b840191505092915050565b600061397e8261431c565b6139888185614367565b93506139988185602086016144f1565b80840191505092915050565b60006139b1603483614356565b91506139bc82614727565b604082019050919050565b60006139d4604883614356565b91506139df82614776565b606082019050919050565b60006139f7602083614356565b9150613a02826147eb565b602082019050919050565b6000613a1a602883614356565b9150613a2582614814565b604082019050919050565b6000613a3d602683614356565b9150613a4882614863565b604082019050919050565b6000613a60602b83614356565b9150613a6b826148b2565b604082019050919050565b6000613a83602583614356565b9150613a8e82614901565b604082019050919050565b6000613aa6602983614356565b9150613ab182614950565b604082019050919050565b6000613ac9602583614356565b9150613ad48261499f565b604082019050919050565b6000613aec603283614356565b9150613af7826149ee565b604082019050919050565b6000613b0f602a83614356565b9150613b1a82614a3d565b604082019050919050565b6000613b32602883614356565b9150613b3d82614a8c565b604082019050919050565b6000613b55602483614356565b9150613b6082614adb565b604082019050919050565b6000613b78602083614356565b9150613b8382614b2a565b602082019050919050565b6000613b9b601783614367565b9150613ba682614b53565b601782019050919050565b6000613bbe602983614356565b9150613bc982614b7c565b604082019050919050565b6000613be1602983614356565b9150613bec82614bcb565b604082019050919050565b6000613c04601283614356565b9150613c0f82614c1a565b602082019050919050565b6000613c27602883614356565b9150613c3282614c43565b604082019050919050565b6000613c4a602183614356565b9150613c5582614c92565b604082019050919050565b6000613c6d601183614367565b9150613c7882614ce1565b601182019050919050565b6000613c90602f83614356565b9150613c9b82614d0a565b604082019050919050565b613caf816144aa565b82525050565b613cbe816144d8565b82525050565b613ccd816144d8565b82525050565b6000613cde82613b8e565b9150613cea8285613973565b9150613cf582613c60565b9150613d018284613973565b91508190509392505050565b6000602082019050613d226000830184613876565b92915050565b600060a082019050613d3d6000830188613876565b613d4a6020830187613876565b8181036040830152613d5c8186613885565b90508181036060830152613d708185613885565b90508181036080830152613d848184613901565b90509695505050505050565b600060a082019050613da56000830188613876565b613db26020830187613876565b613dbf6040830186613cc4565b613dcc6060830185613cc4565b8181036080830152613dde8184613901565b90509695505050505050565b6000604082019050613dff6000830185613876565b613e0c6020830184613cc4565b9392505050565b6000608082019050613e286000830187613876565b613e356020830186613cc4565b613e426040830185613cc4565b8181036060830152613e548184613901565b905095945050505050565b60006020820190508181036000830152613e798184613885565b905092915050565b60006040820190508181036000830152613e9b8185613885565b90508181036020830152613eaf8184613885565b90509392505050565b6000602082019050613ecd60008301846138e3565b92915050565b6000602082019050613ee860008301846138f2565b92915050565b60006020820190508181036000830152613f088184613901565b905092915050565b60006020820190508181036000830152613f2a818461393a565b905092915050565b60006020820190508181036000830152613f4b816139a4565b9050919050565b60006020820190508181036000830152613f6b816139c7565b9050919050565b60006020820190508181036000830152613f8b816139ea565b9050919050565b60006020820190508181036000830152613fab81613a0d565b9050919050565b60006020820190508181036000830152613fcb81613a30565b9050919050565b60006020820190508181036000830152613feb81613a53565b9050919050565b6000602082019050818103600083015261400b81613a76565b9050919050565b6000602082019050818103600083015261402b81613a99565b9050919050565b6000602082019050818103600083015261404b81613abc565b9050919050565b6000602082019050818103600083015261406b81613adf565b9050919050565b6000602082019050818103600083015261408b81613b02565b9050919050565b600060208201905081810360008301526140ab81613b25565b9050919050565b600060208201905081810360008301526140cb81613b48565b9050919050565b600060208201905081810360008301526140eb81613b6b565b9050919050565b6000602082019050818103600083015261410b81613bb1565b9050919050565b6000602082019050818103600083015261412b81613bd4565b9050919050565b6000602082019050818103600083015261414b81613bf7565b9050919050565b6000602082019050818103600083015261416b81613c1a565b9050919050565b6000602082019050818103600083015261418b81613c3d565b9050919050565b600060208201905081810360008301526141ab81613c83565b9050919050565b60006020820190506141c76000830184613ca6565b92915050565b60006020820190506141e26000830184613cc4565b92915050565b60006040820190506141fd6000830185613cc4565b61420a6020830184613cc4565b9392505050565b60006060820190506142266000830186613cc4565b6142336020830185613cc4565b6142406040830184613cc4565b949350505050565b6000614252614263565b905061425e8282614580565b919050565b6000604051905090565b600067ffffffffffffffff821115614288576142876146b8565b5b602082029050602081019050919050565b600067ffffffffffffffff8211156142b4576142b36146b8565b5b602082029050602081019050919050565b600067ffffffffffffffff8211156142e0576142df6146b8565b5b6142e982614709565b9050602081019050919050565b6000819050602082019050919050565b600081519050919050565b600081519050919050565b600081519050919050565b6000602082019050919050565b600082825260208201905092915050565b600082825260208201905092915050565b600082825260208201905092915050565b600081905092915050565b600061437d826144d8565b9150614388836144d8565b9250827fffffffffffffffffffffffffffffffffffffffffffffffffffffffffffffffff038211156143bd576143bc61462b565b5b828201905092915050565b60006143d3826144d8565b91506143de836144d8565b9250817fffffffffffffffffffffffffffffffffffffffffffffffffffffffffffffffff04831182151516156144175761441661462b565b5b828202905092915050565b600061442d826144d8565b9150614438836144d8565b92508282101561444b5761444a61462b565b5b828203905092915050565b6000614461826144b8565b9050919050565b60008115159050919050565b6000819050919050565b60007fffffffff0000000000000000000000000000000000000000000000000000000082169050919050565b600061ffff82169050919050565b600073ffffffffffffffffffffffffffffffffffffffff82169050919050565b6000819050919050565b82818337600083830152505050565b60005b8381101561450f5780820151818401526020810190506144f4565b8381111561451e576000848401525b50505050565b600061452f826144d8565b915060008214156145435761454261462b565b5b600182039050919050565b6000600282049050600182168061456657607f821691505b6020821081141561457a57614579614689565b5b50919050565b61458982614709565b810181811067ffffffffffffffff821117156145a8576145a76146b8565b5b80604052505050565b60006145bc826144d8565b91507fffffffffffffffffffffffffffffffffffffffffffffffffffffffffffffffff8214156145ef576145ee61462b565b5b600182019050919050565b6000614605826144d8565b9150614610836144d8565b9250826146205761461f61465a565b5b828206905092915050565b7f4e487b7100000000000000000000000000000000000000000000000000000000600052601160045260246000fd5b7f4e487b7100000000000000000000000000000000000000000000000000000000600052601260045260246000fd5b7f4e487b7100000000000000000000000000000000000000000000000000000000600052602260045260246000fd5b7f4e487b7100000000000000000000000000000000000000000000000000000000600052604160045260246000fd5b600060033d11156147065760046000803e61470360005161471a565b90505b90565b6000601f19601f8301169050919050565b60008160e01c9050919050565b7f455243313135353a207472616e7366657220746f206e6f6e204552433131353560008201527f526563656976657220696d706c656d656e746572000000000000000000000000602082015250565b7f4c6567656e6461727920726172697479206c6576656c206d757374206265206c60008201527f657373207468616e206f7220657175616c20746f20746865206d61782072617260208201527f69747920726f6c6c000000000000000000000000000000000000000000000000604082015250565b7f537472696e67733a20686578206c656e67746820696e73756666696369656e74600082015250565b7f455243313135353a204552433131353552656365697665722072656a6563746560008201527f6420746f6b656e73000000000000000000000000000000000000000000000000602082015250565b7f436f6d6d6f6e206d757374206265206c6573732072617265207468616e20756e60008201527f636f6d6d6f6e0000000000000000000000000000000000000000000000000000602082015250565b7f455243313135353a2062616c616e636520717565727920666f7220746865207a60008201527f65726f2061646472657373000000000000000000000000000000000000000000602082015250565b7f45706963206d757374206265206c6573732072617265207468616e206c65676560008201527f6e64617279000000000000000000000000000000000000000000000000000000602082015250565b7f455243313135353a2063616c6c6572206973206e6f74206f776e6572206e6f7260008201527f20617070726f7665640000000000000000000000000000000000000000000000602082015250565b7f455243313135353a207472616e7366657220746f20746865207a65726f20616460008201527f6472657373000000000000000000000000000000000000000000000000000000602082015250565b7f455243313135353a207472616e736665722063616c6c6572206973206e6f742060008201527f6f776e6572206e6f7220617070726f7665640000000000000000000000000000602082015250565b7f455243313135353a20696e73756666696369656e742062616c616e636520666f60008201527f72207472616e7366657200000000000000000000000000000000000000000000602082015250565b7f455243313135353a206275726e20616d6f756e74206578636565647320746f7460008201527f616c537570706c79000000000000000000000000000000000000000000000000602082015250565b7f556e636f6d6d6f6e206d757374206265206c6573732072617265207468616e2060008201527f7261726500000000000000000000000000000000000000000000000000000000602082015250565b7f52617265206d757374206265206c6573732072617265207468616e2065706963600082015250565b7f416363657373436f6e74726f6c3a206163636f756e7420000000000000000000600082015250565b7f455243313135353a2073657474696e6720617070726f76616c2073746174757360008201527f20666f722073656c660000000000000000000000000000000000000000000000602082015250565b7f455243313135353a206163636f756e747320616e6420696473206c656e67746860008201527f206d69736d617463680000000000000000000000000000000000000000000000602082015250565b7f436c61696d206f6e636520706572206461790000000000000000000000000000600082015250565b7f455243313135353a2069647320616e6420616d6f756e7473206c656e6774682060008201527f6d69736d61746368000000000000000000000000000000000000000000000000602082015250565b7f455243313135353a206d696e7420746f20746865207a65726f2061646472657360008201527f7300000000000000000000000000000000000000000000000000000000000000602082015250565b7f206973206d697373696e6720726f6c6520000000000000000000000000000000600082015250565b7f416363657373436f6e74726f6c3a2063616e206f6e6c792072656e6f756e636560008201527f20726f6c657320666f722073656c660000000000000000000000000000000000602082015250565b600060443d1015614d6957614dec565b614d71614263565b60043d036004823e80513d602482011167ffffffffffffffff82111715614d99575050614dec565b808201805167ffffffffffffffff811115614db75750505050614dec565b80602083010160043d038501811115614dd4575050505050614dec565b614de382602001850186614580565b82955050505050505b90565b614df881614456565b8114614e0357600080fd5b50565b614e0f81614468565b8114614e1a57600080fd5b50565b614e2681614474565b8114614e3157600080fd5b50565b614e3d8161447e565b8114614e4857600080fd5b50565b614e54816144aa565b8114614e5f57600080fd5b50565b614e6b816144d8565b8114614e7657600080fd5b5056fea26469706673582212201eb9dc693fadfb68de7ceb6b068f63c330b0e97682ddd811007e7a5720de923764736f6c63430008040033",
  "devdoc": {
    "kind": "dev",
    "methods": {
      "balanceOf(address,uint256)": {
        "details": "See {IERC1155-balanceOf}. Requirements: - `account` cannot be the zero address."
      },
      "balanceOfBatch(address[],uint256[])": {
        "details": "See {IERC1155-balanceOfBatch}. Requirements: - `accounts` and `ids` must have the same length."
      },
      "exists(uint256)": {
        "details": "Indicates whether any token exist with a given id, or not."
      },
      "getRoleAdmin(bytes32)": {
        "details": "Returns the admin role that controls `role`. See {grantRole} and {revokeRole}. To change a role's admin, use {_setRoleAdmin}."
      },
      "grantRole(bytes32,address)": {
        "details": "Grants `role` to `account`. If `account` had not been already granted `role`, emits a {RoleGranted} event. Requirements: - the caller must have ``role``'s admin role."
      },
      "hasRole(bytes32,address)": {
        "details": "Returns `true` if `account` has been granted `role`."
      },
      "isApprovedForAll(address,address)": {
        "details": "See {IERC1155-isApprovedForAll}."
      },
      "renounceRole(bytes32,address)": {
        "details": "Revokes `role` from the calling account. Roles are often managed via {grantRole} and {revokeRole}: this function's purpose is to provide a mechanism for accounts to lose their privileges if they are compromised (such as when a trusted device is misplaced). If the calling account had been revoked `role`, emits a {RoleRevoked} event. Requirements: - the caller must be `account`."
      },
      "revokeRole(bytes32,address)": {
        "details": "Revokes `role` from `account`. If `account` had been granted `role`, emits a {RoleRevoked} event. Requirements: - the caller must have ``role``'s admin role."
      },
      "safeBatchTransferFrom(address,address,uint256[],uint256[],bytes)": {
        "details": "See {IERC1155-safeBatchTransferFrom}."
      },
      "safeTransferFrom(address,address,uint256,uint256,bytes)": {
        "details": "See {IERC1155-safeTransferFrom}."
      },
      "setApprovalForAll(address,bool)": {
        "details": "See {IERC1155-setApprovalForAll}."
      },
      "setRarityRolls(uint16,uint16,uint16,uint16,uint16,uint16)": {
        "params": {
          "common": "- rarity level of common quests",
          "epic": "- rarity level of epic quests",
          "legendary": "- rarity level of legendary quests",
          "maxRoll": "- max rarity level",
          "rare": "- rarity level of rare quests",
          "uncommon": "- rarity level of uncommon quests"
        }
      },
      "totalSupply(uint256)": {
        "details": "Total amount of tokens in with a given id."
      },
      "uri(uint256)": {
        "details": "See {IERC1155MetadataURI-uri}. This implementation returns the same URI for *all* token types. It relies on the token type ID substitution mechanism https://eips.ethereum.org/EIPS/eip-1155#metadata[defined in the EIP]. Clients calling this function must replace the `\\{id\\}` substring with the actual token type ID."
      }
    },
    "stateVariables": {
      "_commonRoll": {
        "details": "Rarity rolls"
      },
      "_lastUpdate": {
        "details": "Track last time a claim was made for a specific pet"
      },
      "_rewardMapping": {
        "details": "rewardType => (rewardRarity => data)"
      }
    },
    "version": 1
  },
  "userdoc": {
    "kind": "user",
    "methods": {
      "setRarityRolls(uint16,uint16,uint16,uint16,uint16,uint16)": {
        "notice": "returns the rarity level set for each rarity, and the maximum roll"
      }
    },
    "version": 1
  },
  "storageLayout": {
    "storage": [
      {
        "astId": 407,
        "contract": "contracts/itemFactory.sol:ItemFactory",
        "label": "_balances",
        "offset": 0,
        "slot": "0",
        "type": "t_mapping(t_uint256,t_mapping(t_address,t_uint256))"
      },
      {
        "astId": 413,
        "contract": "contracts/itemFactory.sol:ItemFactory",
        "label": "_operatorApprovals",
        "offset": 0,
        "slot": "1",
        "type": "t_mapping(t_address,t_mapping(t_address,t_bool))"
      },
      {
        "astId": 415,
        "contract": "contracts/itemFactory.sol:ItemFactory",
        "label": "_uri",
        "offset": 0,
        "slot": "2",
        "type": "t_string_storage"
      },
      {
        "astId": 2221,
        "contract": "contracts/itemFactory.sol:ItemFactory",
        "label": "_totalSupply",
        "offset": 0,
        "slot": "3",
        "type": "t_mapping(t_uint256,t_uint256)"
      },
      {
        "astId": 24,
        "contract": "contracts/itemFactory.sol:ItemFactory",
        "label": "_roles",
        "offset": 0,
        "slot": "4",
        "type": "t_mapping(t_bytes32,t_struct(RoleData)19_storage)"
      },
      {
        "astId": 2389,
        "contract": "contracts/itemFactory.sol:ItemFactory",
        "label": "_lastUpdate",
        "offset": 0,
        "slot": "5",
        "type": "t_mapping(t_address,t_uint256)"
      },
      {
        "astId": 2391,
        "contract": "contracts/itemFactory.sol:ItemFactory",
        "label": "_milkContractAddress",
        "offset": 0,
        "slot": "6",
        "type": "t_address"
      },
      {
        "astId": 2395,
        "contract": "contracts/itemFactory.sol:ItemFactory",
        "label": "_commonRoll",
        "offset": 20,
        "slot": "6",
        "type": "t_uint16"
      },
      {
        "astId": 2398,
        "contract": "contracts/itemFactory.sol:ItemFactory",
        "label": "_uncommonRoll",
        "offset": 22,
        "slot": "6",
        "type": "t_uint16"
      },
      {
        "astId": 2401,
        "contract": "contracts/itemFactory.sol:ItemFactory",
        "label": "_rareRoll",
        "offset": 24,
        "slot": "6",
        "type": "t_uint16"
      },
      {
        "astId": 2404,
        "contract": "contracts/itemFactory.sol:ItemFactory",
        "label": "_epicRoll",
        "offset": 26,
        "slot": "6",
        "type": "t_uint16"
      },
      {
        "astId": 2407,
        "contract": "contracts/itemFactory.sol:ItemFactory",
        "label": "_legendaryRoll",
        "offset": 28,
        "slot": "6",
        "type": "t_uint16"
      },
      {
        "astId": 2409,
        "contract": "contracts/itemFactory.sol:ItemFactory",
        "label": "_maxRarityRoll",
        "offset": 30,
        "slot": "6",
        "type": "t_uint16"
      },
      {
        "astId": 2425,
        "contract": "contracts/itemFactory.sol:ItemFactory",
        "label": "_rewardMapping",
        "offset": 0,
        "slot": "7",
        "type": "t_mapping(t_uint256,t_mapping(t_uint256,t_bytes_storage))"
      }
    ],
    "types": {
      "t_address": {
        "encoding": "inplace",
        "label": "address",
        "numberOfBytes": "20"
      },
      "t_bool": {
        "encoding": "inplace",
        "label": "bool",
        "numberOfBytes": "1"
      },
      "t_bytes32": {
        "encoding": "inplace",
        "label": "bytes32",
        "numberOfBytes": "32"
      },
      "t_bytes_storage": {
        "encoding": "bytes",
        "label": "bytes",
        "numberOfBytes": "32"
      },
      "t_mapping(t_address,t_bool)": {
        "encoding": "mapping",
        "key": "t_address",
        "label": "mapping(address => bool)",
        "numberOfBytes": "32",
        "value": "t_bool"
      },
      "t_mapping(t_address,t_mapping(t_address,t_bool))": {
        "encoding": "mapping",
        "key": "t_address",
        "label": "mapping(address => mapping(address => bool))",
        "numberOfBytes": "32",
        "value": "t_mapping(t_address,t_bool)"
      },
      "t_mapping(t_address,t_uint256)": {
        "encoding": "mapping",
        "key": "t_address",
        "label": "mapping(address => uint256)",
        "numberOfBytes": "32",
        "value": "t_uint256"
      },
      "t_mapping(t_bytes32,t_struct(RoleData)19_storage)": {
        "encoding": "mapping",
        "key": "t_bytes32",
        "label": "mapping(bytes32 => struct AccessControl.RoleData)",
        "numberOfBytes": "32",
        "value": "t_struct(RoleData)19_storage"
      },
      "t_mapping(t_uint256,t_bytes_storage)": {
        "encoding": "mapping",
        "key": "t_uint256",
        "label": "mapping(uint256 => bytes)",
        "numberOfBytes": "32",
        "value": "t_bytes_storage"
      },
      "t_mapping(t_uint256,t_mapping(t_address,t_uint256))": {
        "encoding": "mapping",
        "key": "t_uint256",
        "label": "mapping(uint256 => mapping(address => uint256))",
        "numberOfBytes": "32",
        "value": "t_mapping(t_address,t_uint256)"
      },
      "t_mapping(t_uint256,t_mapping(t_uint256,t_bytes_storage))": {
        "encoding": "mapping",
        "key": "t_uint256",
        "label": "mapping(uint256 => mapping(uint256 => bytes))",
        "numberOfBytes": "32",
        "value": "t_mapping(t_uint256,t_bytes_storage)"
      },
      "t_mapping(t_uint256,t_uint256)": {
        "encoding": "mapping",
        "key": "t_uint256",
        "label": "mapping(uint256 => uint256)",
        "numberOfBytes": "32",
        "value": "t_uint256"
      },
      "t_string_storage": {
        "encoding": "bytes",
        "label": "string",
        "numberOfBytes": "32"
      },
      "t_struct(RoleData)19_storage": {
        "encoding": "inplace",
        "label": "struct AccessControl.RoleData",
        "members": [
          {
            "astId": 16,
            "contract": "contracts/itemFactory.sol:ItemFactory",
            "label": "members",
            "offset": 0,
            "slot": "0",
            "type": "t_mapping(t_address,t_bool)"
          },
          {
            "astId": 18,
            "contract": "contracts/itemFactory.sol:ItemFactory",
            "label": "adminRole",
            "offset": 0,
            "slot": "1",
            "type": "t_bytes32"
          }
        ],
        "numberOfBytes": "64"
      },
      "t_uint16": {
        "encoding": "inplace",
        "label": "uint16",
        "numberOfBytes": "2"
      },
      "t_uint256": {
        "encoding": "inplace",
        "label": "uint256",
        "numberOfBytes": "32"
      }
    }
  }
}